:1000000040140020E11F000085750000CD1F000096
:10001000CD1F0000CD1F0000CD1F0000000000001C
:10002000000000000000000000000000E91D0000CA
:10003000CD1F000000000000951D0000CD1F000036
:100040004D1D00004D1D00004D1D00004D1D000008
:100050004D1D00004D1D00004D1D00004D1D0000F8
:100060004D1D00004D1D00004D1D00004D1D0000E8
:100070004D1D00004D1D00004D1D00004D1D0000D8
:100080004D1D00004D1D00004D1D00004D1D0000C8
:100090004D1D00004D1D00004D1D00004D1D0000B8
:1000A0004D1D00004D1D00004D1D00004D1D0000A8
:1000B0004D1D00004D1D00004D1D00004D1D000098
:1000C0004D1D00004D1D00004D1D00004D1D000088
:1000D0004D1D00004D1D00004D1D00004D1D000078
:1000E0004D1D00004D1D00004D1D00004D1D000068
:1000F0004D1D00004D1D00004D1D00004D1D000058
:1001000053B94AB9002908BF00281CBF4FF0FF317E
:100110004FF0FF3000F06CB9ADF1080C6DE904CE82
:1001200000F006F8DDF804E0DDE9022304B07047D2
:100130002DE9F047089E0D4604468E46002B40F000
:1001400082808A42174646D9B2FA82F24AB1C2F197
:10015000200105FA02F320FA01F1974041EA030E6B
:1001600094404FEA1748230CBEFBF8FCB9B208FBD9
:100170001CEE43EA0E430CFB01F098420AD9FB182F
:100180000CF1FF3580F01681984240F21381ACF1FA
:10019000020C3B441B1AA4B2B3FBF8F008FB10336B
:1001A00044EA034400FB01F1A14209D93C1900F1E2
:1001B000FF3380F00181A14240F2FE8002383C44CE
:1001C000641A40EA0C4000211EB1D4400023C6E965
:1001D0000043BDE8F08702B9FFDEB2FA82F2002ADE
:1001E0004FD1CB1B4FEA174E1FFA87F80121B3FB03
:1001F000FEFC250C0EFB1C3345EA034508FB0CF303
:10020000AB4207D97D190CF1FF3002D2AB4200F2AC
:10021000E7808446ED1AA3B2B5FBFEF00EFB105545
:1002200043EA054408FB00F8A04507D93C1900F152
:10023000FF3302D2A04500F2D7801846A4EB080491
:1002400040EA0C40C0E78B4208D9002E00F0AF8096
:100250000021C6E900050846BDE8F087B3FA83F13E
:1002600000294BD1AB4202D3824200F2B780841AFC
:1002700065EB030301209E46002EAAD0C6E9004E7E
:10028000A7E7C2F1200C01FA02F3974020FA0CF024
:100290004FEA174E21FA0CFC1843BCFBFEF1050C8B
:1002A0000EFB11CC1FFA87F845EA0C4501FB08F359
:1002B000AB4204FA02F409D97D1901F1FF3C80F048
:1002C0008B80AB4240F2888002393D44EB1A85B204
:1002D000B3FBFEF00EFB103345EA034500FB08F3C9
:1002E000AB4207D97D1900F1FF3C71D2AB426FD907
:1002F00002383D44EB1A40EA014178E7C1F1200C95
:100300008B4022FA0CF71F4320FA0CF405FA01F394
:100310004FEA174E25FA0CF51C43230CB5FBFEF9EA
:100320001FFA87F80EFB195543EA054509FB08FA41
:10033000AA4502FA01F200FA01F308D97D1909F180
:10034000FF3047D2AA4545D9A9F102093D44A5EBA2
:100350000A05A4B2B5FBFEF00EFB105544EA0544B5
:1003600000FB08F8A04507D93C1900F1FF352DD254
:10037000A0452BD902383C4440EA0940A4EB0804CC
:10038000A0FB02894C45C6464D4619D316D05EB136
:10039000B3EB0E0264EB050404FA0CFCCA404CEA11
:1003A0000202CC40C6E900240021BDE8F0873146B6
:1003B00030460EE7AC46EDE6184601E74345E6D287
:1003C000B8EB020E69EB07050138E0E72846D3E7F2
:1003D00060468FE78146BAE7614677E708464BE714
:1003E000ACF1020C3D4415E702383C4426E700BF5F
:1003F000704700BF43682DE9F0411B68D0F80880C2
:10040000076901268E401E4204460D460ED10E4954
:100410000E4A0F4840F2FD2307F08EF80D4807F012
:100420008BF80A4840F2FD2106F0B2FF3B6823EA50
:1004300006063E60D8F80030294620464FF4887200
:10044000BDE8F041184700BFF6800000CC800000F6
:10045000348100005181000043682DE9F0411B68A0
:100460008768D0F8108001268E401E4204460D4653
:100470000ED11049104A114840F29D2307F05CF854
:100480000F4807F059F80C4840F29D2106F080FF14
:10049000D8F800301E42BE6929462046B44618BF2F
:1004A0004FF40033BDE8F04108BF4FF480234FF410
:1004B000A0326047F6800000CC800000348100004C
:1004C00051810000084A00231360084A1360084A5B
:1004D0001360084A1360084A1360084A1360084A08
:1004E0001360084A13607047D0020020D402002035
:1004F000D8020020DC020020E0020020E4020020FC
:10050000E8020020EC02002008B5FFF7DBFF024BF9
:1005100001221A6008BD00BFD002002008B5FFF715
:10052000D1FF024B01221A6008BD00BFD402002097
:1005300008B5FFF7C7FF024B01221A6008BD00BFD4
:10054000D802002008B5FFF7BDFF024B01221A6058
:1005500008BD00BFDC02002008B5FFF7B3FF024B67
:1005600001221A6008BD00BFE002002008B5FFF7B5
:10057000A9FF024B01221A6008BD00BFE40200205F
:1005800008B5FFF79FFF024B01221A6008BD00BFAC
:10059000E802002008B5FFF795FF024B01221A6020
:1005A00008BD00BFEC0200202DE9F84F0024B34D38
:1005B000B34EB44F2346022B53D1DFF8FC92DFF841
:1005C000FC82DFF8FCA2D9F800306BB1632C4FF04D
:1005D000640200F3888194FBF2F1504602FB114261
:1005E00006F0AAFFFFF76EFF3368002B00F0418191
:1005F0006422A54894FBF2F102FB114206F09CFF35
:10060000FFF760FF01233A6852B164229F4894FBD0
:10061000F2F102FB114206F08FFFFFF753FF0323B5
:100620009B4A12685AB164229A4894FBF2F102FB89
:100630001142002406F080FFFFF744FF23462A689A
:100640004AB9954A126832B9944A12681AB9944A5A
:100650001268002AAFD0934806F06EFFFFF732FF12
:10066000B1E7032B54D1DFF85092DFF85882DFF85E
:1006700058A2D9F800306BB1312C4FF0640200F36E
:10068000398194FBF2F1504602FB114206F054FF0F
:10069000FFF718FF3368002B00F0ED8064228248DA
:1006A00094FBF2F102FB114206F046FFFFF70AFF4E
:1006B00002233A6852B164227C4894FBF2F102FBB7
:1006C000114206F039FFFFF7FDFE0123704A126860
:1006D0005AB164226F4894FBF2F102FB11420024EC
:1006E00006F02AFFFFF7EEFE23462A6852B96A4A4F
:1006F00012683AB9694A126822B9694A1268002A2E
:100700003FF459AF674806F017FFFFF7DBFEB0E78D
:10071000012BDFF87C9157D0DFF8B081DFF878A1AA
:10072000DFF878B12B6853B10A346422404694FB59
:10073000F2F102FB114206F0FFFEFFF7C3FEDAF80A
:10074000003053B114346422404694FBF2F102FBB2
:10075000114206F0F1FEFFF7B5FEDBF8003053B1B1
:1007600032346422404694FBF2F102FB114206F05F
:10077000E3FEFFF7A7FE4A4B1B6853B164346422C3
:10078000404694FBF2F102FB114206F0D5FEFFF762
:1007900099FE336813B1FFF795FE01233A6812B151
:1007A000FFF790FE0323D9F80020002A3FF403AF9F
:1007B0006422384894FBF2F102FB114206F0BCFEC1
:1007C0000024FFF77FFEADE7DFF8ECA0DFF8008143
:1007D000DFF800B1DAF8003063B1952C4FF0640215
:1007E0007ADC94FBF2F1584602FB114206F0A4FEBB
:1007F000FFF768FE3368002B39D064222C4894FB45
:10080000F2F102FB114206F097FEFFF75BFE0323B5
:100810003A6852B16422274894FBF2F102FB11427C
:1008200006F08AFEFFF74EFE0223D9F800205AB1E7
:100830006422184894FBF2F102FB1142002406F0F6
:100840007BFEFFF73FFE23462A6852B9124A126820
:100850003AB9124A126822B9114A1268002A3FF4C2
:10086000AAAE104806F068FEFFF72CFEB2E701239F
:10087000CEE70223C7E603231BE700BFE002002008
:10088000D0020020D8020020178300004F83000010
:10089000DC0200207A810000E4020020E80200204F
:1008A000EC02002068820000F68300003084000023
:1008B000FA81000030820000D402002097840000FA
:1008C000A8820000CE8400008983000063810000BC
:1008D000668400008F810000963C4046B4FBF2F134
:1008E00002FB114282E7643C4046B4FBF2F102FB9A
:1008F000114275E6323C4046B4FBF2F102FB114274
:10090000C4E600BF10B56D4804F038F9044620B9BC
:10091000BDE810406A4806F00FBE6A4806F00CFEBB
:100920000B212046FFF766FD011E04DA6648BDE88C
:10093000104006F001BE0B212046FFF78DFD014659
:1009400008B16248F3E70C212046FFF753FD011E72
:1009500001DA5F48EBE70C212046FFF77DFD0146F9
:1009600008B15C48E3E718212046FFF743FD011E6C
:1009700001DA5948DBE718212046FFF76DFD0146F3
:1009800010B1564806F0D8FD19212046FFF732FD78
:10099000011E01DA5248CAE719212046FFF75CFD23
:1009A000014608B14F48C2E71C212046FFF722FD4F
:1009B000011E01DA4C48BAE71C212046FFF74CFD26
:1009C000014608B14948B2E71D212046FFF712FD54
:1009D000011E01DA4648AAE71D212046FFF73CFD2B
:1009E000014608B14348A2E71E212046FFF702FD59
:1009F000011E01DA40489AE71E212046FFF72CFD30
:100A0000014608B13D4892E71F212046FFF7F2FC5E
:100A1000011E01DA3A488AE71F212046FFF71CFD34
:100A2000014608B1374882E73749384B4B602046CA
:100A30004FF400638B6006F0A3FC3549354B4B60E7
:100A400020464FF480538B6006F09AFC3249334BBA
:100A50004B6020464FF080738B6006F091FC30496C
:100A6000304B4B6020464FF000738B6006F088FCE3
:100A70002D492E4B4B6020464FF080538B6006F083
:100A80007FFC2B492B4B4B6020464FF000538B6073
:100A900006F076FC2849294B4B6020464FF08043F6
:100AA0008B6006F06DFC2649264B4B6020464FF0CC
:100AB00000438B6006F064FCFFF776FD01850000C3
:100AC0000885000029850000468500006D8500002E
:100AD000A4850000CB850000028600002986000066
:100AE0006086000087860000BE860000E586000064
:100AF0001C870000438700007A870000A187000060
:100B0000D8870000FF870000F002002009050000E0
:100B1000FC0200201D050000080300203105000034
:100B200014030020450500002003002059050000A3
:100B30002C0300206D050000380300208105000013
:100B400044030020950500002DE9F04F91B08B463D
:100B5000029092461C4600259AF8000008B92846E3
:100B60005EE325280AF1010707D0029B5946984702
:100B70000028C0F25583013510E2182200210AA88E
:100B800006F03BFD9AF80130252B78D000229446E0
:100B9000164696461046394617F8013B2B2B00F0B7
:100BA0009D8000F29480202B00F09B80232B00F08E
:100BB0009A8028B19DF8300040F004008DF8300094
:100BC000BEF1000F05D09DF8300040F008008DF810
:100BD00030002EB19DF8300040F010008DF830004C
:100BE000BCF1000F05D09DF8300040F020008DF8DA
:100BF00030002AB19DF8302042F040028DF83020BC
:100C00009DF8302002F04400442803D16FF386128F
:100C10008DF830209DF830202A2B42F080028DF88C
:100C200030207BD19DF8312042F001024B1C8DF821
:100C300031201A782E2A9DF831200CBF0121002185
:100C400061F341028DF8312074D15A782A2A6AD092
:100C5000013300210A26184610F8012BA2F13007B3
:100C6000092F40F28E809DF830200E91C2F3400093
:100C700040EAD17161F341028DF830205AE00AF167
:100C800002078DF833309DF83130D90740F14981A2
:100C900054F8049BB9F1000F07DA9DF8302042F0B8
:100CA00004028DF83020C9F100095A0740F1428151
:100CB00054F8048BB8F1000F80F241819DF8313077
:100CC0006FF341038DF831304FF0FF3837E12D2BB2
:100CD0000CD0302B7FF46DAF01225CE74FF0010E9A
:100CE00059E7012657E74FF0010C54E7012052E77E
:100CF0000CFB0202303A33461E4616F8010BA0F1F7
:100D00003007092FF4D9994293D09DF830100D92F5
:100D1000D20F62F341018DF830108AE70B460022B2
:100D20004FF00A0CE8E79DF8312042F004028DF8FC
:100D3000312002331F4617F8012B6C2A41D025D8E9
:100D4000682A2BD06A2A46D04C2A4CD01F4617F866
:100D5000012B9DF831308DF83320782A00F2D980AC
:100D6000572A4DD8412A03D0453A022A00F2D180B1
:100D70009DF83230042262F302038DF832300123F1
:100D80009EE006FB01213039034664E7742A26D031
:100D90007A2ADBD19DF8313006220DE05A78682A94
:100DA0009DF8312006D1012161F3C6028DF8312072
:100DB0009F1CCCE71346022262F3C6038DF8313044
:100DC000C5E75A786C2A9DF8312001D10421EBE760
:100DD00013460322F0E79DF831300522ECE79DF839
:100DE00031300722E8E7BDF8303023F4F04323F038
:100DF000020343F4804343F00203ADF83030A6E72A
:100E0000A2F15801202900F2848001A050F821F0BD
:100E1000D50E0000130F0000130F0000130F000089
:100E2000130F0000130F0000130F0000130F00003A
:100E3000130F0000710D0000130F0000D50E00000D
:100E4000950E0000710D0000710D0000710D000085
:100E5000130F0000950E0000130F0000130F000089
:100E6000130F0000130F0000DD0E0000D50E000070
:100E7000F90E0000130F0000130F0000F90E000020
:100E8000130F0000D50E0000130F0000130F000019
:100E9000D50E00009DF83210012003F0780360F3B6
:100EA0000201402B8DF8321002BF9DF8301041F046
:100EB00001018DF83010632A31D1003B18BF0123A6
:100EC0009DF83020C2F340010B4363F341028DF8DB
:100ED0003020D8E69DF832100220DEE79DF832205F
:100EE00003F07803A3F14000032161F302024342BF
:100EF0008DF832204341E3E79DF83220032113F0BF
:100F0000780F61F302028DF8322014BF0123002311
:100F1000D6E79DF8303043F001038DF830300023E0
:100F2000CEE79DF93020002AB4BFDDF834904FF0B1
:100F3000FF39BAE69B077FF5C7AEDDF838809DF82C
:100F400031200023CDE90D339DF8323003F0070343
:100F5000012BC2F3C30236D1D31E042B20D8DFE805
:100F600003F00307071F1F0054F8040BC11704E028
:100F7000073424F00704F4E80201CDE90A019DF8E2
:100F8000303013F0030654D002983B46524659467F
:100F900006F050FA0028C0F243810544BA46DBE56A
:100FA00054F8040B012A4FEAE071CDE90A0105D19A
:100FB0009DF828300A9300230B93E0E7022ADED144
:100FC000BDF92800D2E7022B23D1D31E042B13D85E
:100FD000DFE803F0030A0A12120020680A900021D9
:100FE000231D0B911C46CAE7073424F00703F3E8DE
:100FF0000201CDE90A01F5E754F8043B0A93012AFE
:101000004FF000030B93D3D0022AB8D1BDF828309B
:10101000D0E7042B07D1073424F00704F4E80201D9
:10102000CDE90A01ABE7032B04BF54F8043B0A9354
:10103000A5E79DF833007828B0D8622822D8252863
:101040003FF493AD5828A9D10DF126030093DDE9B3
:101050000A0104AB0CAA06F0A2F98246B8F1000F0F
:101060000DF126000CDB9DF83020A0EB0A036FF396
:10107000861298458DF8302002D9A8EB03030D9312
:1010800080463DE06338152888D801A151F820F04A
:1010900011110000751100009D0F00009D0F000050
:1010A0009D0F00009D0F0000751100009D0F0000B6
:1010B0009D0F00009D0F00009D0F0000D311000048
:1010C000A1110000A51100009D0F00009D0F000060
:1010D000E91000009D0F0000A11100009D0F00000D
:1010E0009D0F0000A1110000B8F1000FDDF828A04D
:1010F0000ADB4146504606F060FA0AEB000800267B
:10110000BAF1000F0CD149E7504606F04FFAF4E768
:101110000A9B8DF8103000260DF111080DF1100A10
:10112000A8EB0A0306B101339DF83220D0066BD537
:10113000023352060D9948BF0E9A0B4448BF9B18C4
:10114000B9F1000F79DD9DF83020A9EB0309C2F356
:1011500080030393530770D4500664D546B1029BB5
:1011600059463046984700285ADB039B01351E46F6
:10117000302359E01E0711D413F0100618BF2026A3
:10118000DDE90A23002A73F10001BFF65DAF524288
:1011900063EB4303CDE90A232D2655E72B26EFE722
:1011A000002651E70A9848B30DF1260300930CAAD4
:1011B00004AB002106F0F3F8BDF8323003F0EF0382
:1011C00043F4F04343F010038246ADF8323000267A
:1011D00044E70A9B072A3FF6E1AEDFE802F00D0480
:1011E000060D08080D0D1D70D8E61D80D6E62846B0
:1011F000E917C3E90001D1E61D60CFE6DFF8C4803E
:101200000646A8F1050A8BE7110748BF013390E7AE
:10121000184603935946029B98470028039B04DA1B
:1012200011B0BDE8F08F20234D444A46002AA5EBBB
:10123000090109F1FF39EBDC0D4636B1029B594635
:10124000304698470028EBDB01359DF83230D9064F
:1012500001D41A0706D5029B59463020984700282A
:10126000DEDB01359DF83230DB0607D59DF8330013
:10127000029B594698470028D2DB01350D9E2E442B
:10128000731B002B16DC029843465246594606F063
:10129000D1F80028C4DB0544A944A9EB0503002BC1
:1012A0007FF77CAE029B5946202098470028B7DB89
:1012B0000135F2E7029B5946302098470028AFDB02
:1012C0000135DDE73B88000038B54468816004F0F3
:1012D0000304032C054602D02CB1002000E0006876
:1012E00000236B6038BD054A05490648452306F0D2
:1012F00023F90248452106F04BF8EEE73C88000050
:101300002790000034810000014805F0A7BE00BF0F
:10131000D87E000008B5D0B14368042B11D100225B
:101320000368BFF35B8F53E8001F012903D143E833
:1013300000200028F7D1BFF35B8F074808BF104695
:1013400008BD3BB1006803F071FF0020F8E76FF4BF
:10135000E040F5E70148F3E7E98FFFFFEA8FFFFF81
:1013600010B5044618B90D4B0D485B689847616885
:1013700008290DD031F004030AD011F0020108D081
:101380000848214603F0EEFD00232360002363603C
:1013900010BD2068142206F030F9F7E7DC000020C9
:1013A0005F8800005003002010B5044618B9164BA2
:1013B00016485B6898476368042B23D0082B21D01C
:1013C000CBB92368BBB912484FF0FF324FF0FF335F
:1013D000214603F05BFD08B923681BB90A4B0D4891
:1013E0005B68984720681422002106F006F96368BC
:1013F00043F002036360206806F0DCFB636843F09F
:101400000103636010BD00BFDC0000205F880000A6
:10141000500300208588000008B508B34368042BFA
:1014200010D101220368BFF35B8F53E8001F00292E
:1014300003D143E800200028F7D1BFF35B8F0BD125
:10144000002008BD53B100684FF0FF324FF0FF336A
:1014500003F0ECFD0028F3D00348F2E70348F0E77F
:101460006FF4E040EDE700BFE98FFFFFEA8FFFFF79
:1014700008B5064906484023142206F07FFBBDE864
:1014800008400449044805F04BBE00BF700300202B
:1014900050030020F07E0000E07E00002DE9F04FB8
:1014A000B0F81C9085B019F0080F0446039222D0C2
:1014B00001290CBF49F0100949F02009A0F81C903F
:1014C0001434204605F018FA68B99F4A9F49A0488D
:1014D000AC2306F031F89F48214606F02DF89A48D3
:1014E000AC2105F055FF039B83F31188BFF36F8F89
:1014F00005B0BDE8F08F984FDFF8548209F0070976
:10150000022906D1204605F0C1FF0028D8D00128C5
:1015100068D1D4F818B0A38BBBF1000F0ADA00260B
:10152000256823F00703C4E9006643F00103A383A1
:10153000019627E003F00702511F012934D800214A
:1015400023F00703062A25689BB2C4E900110CD1D9
:101550008D422A4638BF0A462AB1E18B1268013112
:10156000E183002AF8D143F00203A383204605F06B
:101570008DFF06460028DBD0A38B43F02003A38316
:1015800000230193A38B03F007024A45029203D084
:10159000A268002A40F0F0801DB9019A002A00F0EC
:1015A00036814FF00009E9E0042A0ED123F0070349
:1015B0009AB2A283204605F069FF054618B142F0B1
:1015C0002002A28300250195DCE74046634940F2F2
:1015D0001B133A4605F0B0FF40F21B11384605F0E8
:1015E000D7FEEFE7032835D1B9F1000F0BD05C49E6
:1015F00040464FF4AB733A4605F09EFF4FF4AB7193
:10160000384605F0C5FE23685BB95649404640F2AE
:1016100057133A4605F090FF40F25711384605F04F
:10162000B7FE23691B6801935BB94F4940464FF4ED
:10163000AD733A4605F080FF4FF4AD71384605F0C2
:10164000A7FEA38B23F0070343F00603A383002523
:10165000AB4697E7042832D1B9F1020F0BD04349CA
:10166000404640F25D133A4605F066FF40F25D11D8
:10167000384605F08DFEE38B5BB13D4940464FF4A3
:10168000AF733A4605F058FF4FF4AF71384605F096
:101690007FFE23695B6801935BB93349404640F2A2
:1016A00061133A4605F048FF40F26111384605F0F3
:1016B0006FFEA38B23F0070343F00403C6E705285E
:1016C00032D1B9F1010F0BD02A4940464FF4B27321
:1016D0003A4605F031FF4FF4B271384605F058FE36
:1016E00023685BB91F49404640F265133A4605F04E
:1016F00023FF40F26511384605F04AFE23699B68D6
:1017000001935BB9184940464FF4B4733A4605F06B
:1017100013FF4FF4B471384605F03AFEA38B23F063
:10172000070343F0050391E70C4940F26B133A4677
:10173000404605F001FF002540F26B11384605F0E8
:1017400027FE019584E700BF558900007B890000D2
:101750003481000092890000B288000027900000C8
:10176000D4880000E0880000038900001A89000086
:10177000308900003F8900004FF0010943F0080361
:1017800004F1140AA383504605F0B6F868B93A4A42
:101790003A49AC23404605F0CFFE3948514605F0A2
:1017A000CBFE3548AC2105F0F3FD039B83F3118894
:1017B000BFF36F8FB9F1000F38D1002D4BD1019BD2
:1017C00013B13049204698474FF02003EFF3118BB7
:1017D00083F31288BFF36F8F5046CDF80CB005F03D
:1017E0007DF868B9244A28498123404605F0A4FEC3
:1017F0002648514605F0A0FE1F48812105F0C8FD8E
:10180000504605F089F8A38B23F00803A383A38B2C
:10181000DA0628D523F01003A3830121B4F81C9025
:1018200009F0070900297FF46BAE49E6A168002999
:10183000C3D00B68029A002B38BF002399464B682F
:1018400020461E465B46B047B9F1000FB5D0D9F827
:1018500000304946EEE72946029A2D685B4620464D
:1018600005F030FEA9E713F020011EBF23F020038E
:10187000A3830221D2E700BF558900007B890000C5
:101880009289000091180000A7890000BC8900001F
:10189000F8B504460D4600F114064FF02003EFF3AF
:1018A000118783F31288BFF36F8F304605F016F867
:1018B00068B90C4A0C490D48812305F03DFE0C48DF
:1018C000314605F039FE0748812105F061FD3046BB
:1018D00005F022F8A5613A4620460121BDE8F8400E
:1018E000FFF7DCBD55890000A789000034810000A6
:1018F000BC8900002DE9F04704460F4605F0F8FDCD
:10190000051E5EDB04F114094FF02003EFF3118A8A
:1019100083F31288BFF36F8F484604F0DFFF68B986
:10192000384A39493948812305F006FE3848494686
:1019300005F002FE3348812105F02AFD484604F0F7
:10194000EBFFE38BA28B4FF6FF718B4202F0070691
:1019500050D0022E24D10133E38335464FF00108E5
:10196000484604F0C9FF68B9264A2A492748AC23EB
:1019700005F0E2FD2848494605F0DEFD2148AC218E
:1019800005F006FD8AF31188BFF36F8FB8F1000FE1
:1019900017D0002332463946204605F093FD10E06B
:1019A000930701D0062E0FD100233B606368F3B983
:1019B000C4E900773546FEB9524602212046FFF7BA
:1019C0006DFD2846BDE8F087052E18D0012E0BD0FE
:1019D00012490E48124A40F2C91305F0ADFD1048F5
:1019E00040F2C91105F0D4FC6FF0040504E01F605B
:1019F0006760DFE76FF00A054FF00008B0E76FF0AF
:101A00008505F9E755890000A789000034810000A9
:101A1000BC8900007B890000928900003F8900009A
:101A2000B28800002DE9F84305464FF02003EFF39C
:101A3000118683F31288BFF36F8F234804F04EFFA3
:101A400068B9224A22492348812305F075FD1E49C1
:101A5000214805F071FD1D48812105F099FC1A48C7
:101A600004F05AFF1D4B1C68002C38BF00249CB1A9
:101A70001B4FDFF878804FF00C09D4E90132002DBC
:101A800008BF13462BB198F8142009FB02F2B85C8A
:101A900098472468002CF0D10B4804F02DFF68B95A
:101AA0000A4A10490B48AC2305F046FD06490E488A
:101AB00005F042FD0548AC2105F06AFC86F311886B
:101AC000BFF36F8FBDE8F8837008002055890000D0
:101AD000A789000034810000BC8900007408002040
:101AE000800800207B89000092890000000A002005
:101AF00000F01F0301229A400A4BBFF35B8F40099D
:101B000003EB800050E8003F43EA020140E8001C7C
:101B1000BCF1000FF6D1BFF35B8F1A4214BF012056
:101B2000002070478C08002030B51D4B1D7DBFF391
:101B30005B8F05F01F0301229A401A4B690985B09B
:101B4000D04303EB810353E8001F01EA000443E89C
:101B5000004CBCF1000FF6D1BFF35B8F114217D0E0
:101B6000114C0C2202FB054207CA01AB83E80700B7
:101B70000E4A7AB193E8070005F05BFD0020FFF7FD
:101B800051FF0C236B430022E118E250C1E901220E
:101B900005B030BD82F31188BFF36F8FEEE700BF51
:101BA000000A00207C080020800800203376000016
:101BB0002DE9F041374BDFF8F4801C7D88B00746F3
:101BC0002046FFF795FF60B96E463A4621463046FB
:101BD00005F0BFFC96E807000C2505FB048585E8A9
:101BE00007000C23634308EB030218F803006509A0
:101BF00004F01F06C8B37B1C0FD0D2F808E02648BB
:101C0000264A4FF4004C00210023ECFB0E01FEF7A6
:101C100077FA0121381A05F041F803F08FFC012012
:101C2000FFF700FFBFF35B8F1D4B0122B24003EBB8
:101C3000850353E8001F114343E800100028F8D142
:101C4000BFF35B8F0C2303FB048494E8070005AB10
:101C500083E80700134A1AB193E8070005F0D6FCA1
:101C6000FFF762FF04F062F901200F4ABFF35B8FB8
:101C70000123B340DB4302EB850555E8002F1A40F2
:101C800045E800210029F8D1BFF35B8F08B0BDE81B
:101C9000F08100BF000A00203F420F0040420F00C9
:101CA0007C0800200D7600008C08002080080020B1
:101CB0000B6801330B60014B1B68184720000020A4
:101CC000014B1860704700BF2000002007B50B468D
:101CD000002102460191034801A9FEF735FF03B038
:101CE0005DF804FBB11C000008B54FF02002EFF3D3
:101CF000118382F31288BFF36F8F00F0A1FC0348B9
:101D000005F01AFC00F00AF8FCE700BFD4890000D7
:101D1000014910220A60704710ED00E072B64040A1
:101D200080F31188BFF36F8FBFF34F8F30BF62B660
:101D3000BFF36F8F704700BF72B6494081F31188BF
:101D400020BF80F3118862B6704700BF01B572B63C
:101D50000B4A906900281EBF0021916105F007FF22
:101D600062B6EFF30580A0F110004FEAC00005490C
:101D7000014409C99847BDE80140034908470000EC
:101D8000000A0020247D0000B11F000030BFFFF7D3
:101D9000FDBF00BF12498A684FF030001044EFF3D6
:101DA000098C80E8F01F202080F31288BFF36F8F2A
:101DB0000C4F4FF00066CA698A603E60506F002386
:101DC000536780F3118804B5104600F0E7FABDE8C8
:101DD000044002F1300090E8F01F8CF3098870474E
:101DE000000A002004ED00E01EF0040F0CBFEFF32A
:101DF0000880EFF30980816911F8021C0229FFD0E5
:101E000001B505F0B7FB01BD43B2002B08DB012291
:101E100000F01F0002FA00F05B09024A42F82300BA
:101E2000704700BF00E100E0054B420900F01F00D1
:101E300053F82220012303FA00F01040704700BF3E
:101E400000E100E070B54C1C072C05460E460FD98A
:101E5000114A12491248592305F06EFB11483146C8
:101E600007232A4605F068FB0B48592105F090FA34
:101E70006BB2002BACBF03F160430B4B4FEA441431
:101E8000B8BF05F00F05E4B2AABF03F561435C5586
:101E900083F8004370BD00BFFD890000338A000055
:101EA000348100004E8A000014ED00E00B4A08B5B2
:101EB0000B4B22F07F029A60BFF34F8FBFF36F8FFF
:101EC000D3F8882022F47002C3F8882002F026FF9D
:101ED00005F050F800F0F6F902F02AFF00000000CB
:101EE00000ED00E0094A0A499368096899670949C1
:101EF00058674B6843F080534B60002383F311888D
:101F0000BFF36F8F9368986F704700BF000A00207F
:101F10004080000000ED00E042F8203C009B42F8C9
:101F20001C3C0A49019B42F8183C029B42F8143CB5
:101F300021F001014FF0807342F8043C42F8081C84
:101F40000023203A02654367704700BF5D750000BB
:101F50000B4A0346906890B113F1160F406E05D0FE
:101F6000A0F120029A4206D8834204D281422CBFBB
:101F70000021012100E00021002908BF0020704756
:101F8000000A002008B5094B98600D46144600F081
:101F900005FA204685F30988002163B681F311888C
:101FA000BFF36F8F0022002305F0D8FA000A00204B
:101FB000044B9968D869884203D003494FF0805296
:101FC0000A607047000A002004ED00E0EFF308808B
:101FD000EFF3098101B5724600F0AEF801BD00BF14
:101FE000002080F31488BFF36F8F05F019FE0020E6
:101FF0000D490860BFF34F8F0C4880F3088800F04C
:102000007DF9202080F3118809484FF402614018BF
:1020100080F30988EFF314800221084380F31488C9
:10202000BFF36F8FFFF742FF94ED00E040140020F4
:10203000C0150020234B70B515469A6A9A6A9A6AB1
:10204000044690071AD5586B9A6A120616D519B12C
:102050009A6A22F080029A629A6A9A6A9A6AD60604
:102060000FD49B6A99070CD40024164A936A43F054
:10207000FF03936200232B70204670BD6FF01500A4
:10208000EAE7104E73681A05EED52146FFF760FFA8
:10209000044618B180F309880224E6E7B36ADB0638
:1020A000E2D5094A09490A4840F2491305F044FAC1
:1020B000084805F041FA044840F2491105F068F972
:1020C000D3E700BF00ED00E08E8A0000C88A000060
:1020D00034810000128B00000D4B9A6A9A6A9A6A4A
:1020E000920508D59A6B9A6A120404D518B19A6AB7
:1020F00022F400429A62064B9A6A9A6AD20558BF45
:102100009A6A9A6A002042F47F429A620870704785
:1021100000ED00E0074B9A6A9A6A9A6A9A6A9A6A8C
:102120009A6A9A6A6FEA02426FEA12429A62002041
:10213000704700BF00ED00E070B5544B5C688AB09A
:102140000D46C4F30804002686F31188BFF36F8F91
:1021500002F07F43B3F17F4F08D102F00C03082B4C
:1021600004D012075CBF054601267DB9484A49499B
:10217000494840F2F23305F0DFF9484805F0DCF950
:10218000434840F2F23105F003F9002500238DF8B1
:102190000730E31E032B72D8DFE803F002696D49B4
:1021A0003A4BDC6A14F0020469D1DA6A002A18DBBF
:1021B000DB6A5B004ED5AB6933F8022C4DF6027337
:1021C0009A420DD003F1604303F626631B780BB3EC
:1021D0000DF1070201212846FFF72CFF044600E01D
:1021E0002C689DF807309BB92022294602A805F0EB
:1021F000F9F9099B002E44D0C3F3080222B96FEA13
:1022000053236FEA4323099302A9204605F0B0F94E
:102210000AB070BD224B1B782BB10DF107010120D4
:10222000FFF75AFFDAE71F4B1B889BB213B1FFF78A
:1022300071FFD3E71C49164A174840F2C32305F043
:102240007BF91A4805F078F940F2C321104805F0EF
:102250009FF8C6E714490E4A0F4840F2C72305F01D
:102260006BF9134805F068F940F2C721EEE70DF16C
:1022700007020021AFE70DF107010020D0E700249D
:10228000AFE723F4FF7323F00103BCE700ED00E0A8
:102290008E8A0000358B000034810000488B0000DE
:1022A00029ED00E02AED00E027900000868B000079
:1022B000AA8B0000024A536943F010035361704730
:1022C00000ED00E0044800232021C2180133302B28
:1022D00082F80013F9D1704700E100E0064A116866
:1022E0000023C1F3072118468B4200D17047936049
:1022F00010610133F8E700BF90ED00E008B572B659
:10230000002383F31388FFF7E9FF144B4FF0FF32EC
:10231000C3F88020C3F88420C3F88820C3F88C2039
:10232000C3F89020C3F89420C3F89820C3F89C20E9
:10233000C3F88021C3F88421C3F88821C3F88C2115
:10234000C3F89021C3F89421C3F89821C3F89C21C5
:1023500062B6BFF34F8FBFF36F8F08BD00E100E09F
:10236000064B9B68834207D1EFF3058323B1044AF0
:10237000536843F08053536004F040B8000A0020D3
:1023800000ED00E0024B034A0348012100F068B869
:102390000000042000000020047F0000426E054B76
:1023A000203A1A60044A2021C3E90112184601218B
:1023B00000F07EB89008002000000B15F0B51E4F0D
:1023C00000268E4201DB1046F0BD446884B353B151
:1023D00004F1FF3C14EA0C0F18D11F2C16D9056824
:1023E0001CEA050F12D1202C0568D0F808C0D2B223
:1023F0000FD9B4F1004F0ED8013CB4FA84F4C4F103
:102400001F046400072A4CEA040406D96FF0150281
:10241000D9E70824F6E73E24F4E725F01F05154325
:1024200045F0100544F00104BA60FD6001323C61E2
:1024300001360C30C5E700BF90ED00E0034B0522EC
:102440005A60BFF34F8FBFF36F8F704790ED00E07E
:10245000BFF35F8F014B00225A60704790ED00E0A0
:1024600038B50E4D01232A780C46FFF7A7FF2870D8
:10247000163011D140F21113094A0A490A4805F0F1
:102480005BF82146094805F057F8BDE83840044894
:1024900040F2111104F07CBF38BD00BF600A00207B
:1024A000DA8B00002790000034810000118C0000BE
:1024B00010B5124A002312780C46FFF77FFF10F187
:1024C000160F08D00E4B0022072800DD10BD9860C3
:1024D0001A610130F8E70B4A0B490C484FF4987326
:1024E00005F02AF821460A4805F026F8BDE8104014
:1024F00004484FF4987104F04BBF00BF600A0020FD
:1025000090ED00E0DA8B000027900000348100009D
:102510003D8C0000254910B50C68082C13D94FF4E8
:10252000A473234A2349244805F006F823480822C7
:10253000214605F001F81E484FF4A47104F028FF6D
:102540004FF0FF3010BDFFF783FF48681C490022A1
:10255000944200F10C0019D11A4B1C70FFF76EFF6A
:102560000B68C3F30723082B0ED01749104A1248F3
:102570004FF4D47304F0E0FF144804F0DDFF0C487E
:102580004FF4D47104F004FF0020DBE78A6050F8B8
:102590000C3C23F01F03134343F01003CB6050F8AF
:1025A000043C43F001030B610132D1E7107F0000CE
:1025B000DA8B000027900000348100006A8C000054
:1025C00090ED00E0600A00209E8C0000EE8C000080
:1025D000014B1860704700BF240000204FF020031B
:1025E000EFF3118183F31288BFF36F8F0F4A01233A
:1025F000C2F840354FF08042C2F878350C4A126874
:10260000082A08D10B4A1268052A04D80A48825CB5
:102610000AB10A4A13604FF080430122C3F88025B3
:1026200081F31188BFF36F8F0020704700E00140F5
:1026300030010010340100101E8D000038060040EB
:102640004FF08043C0B2C3F81C05BFF34F8F05495C
:10265000054BCA6802F4E0621343CB60BFF34F8FAF
:1026600000BFFDE700ED00E00400FA0520B1034BD8
:10267000800143F001031847704700BFD07E00007F
:102680002DE9F041104C071BC7F347174FF00C081A
:1026900008FB07F8064608F148000D462044402193
:1026A00004F0D2FF011E09DB084B4444C4E9103595
:1026B000074B53F83730BDE8F041184730462B46FA
:1026C000BDE8F041184700BFAC080020AB76000021
:1026D000487F000038B5CCB2012C054609D909491C
:1026E00009480A4A792304F027FF0848792104F0B1
:1026F0004FFE2B690C2104FB0134A06C00F0070095
:1027000038BD00BF618D000034810000248D0000C1
:10271000F8B5CCB2012C0769054616460BD9184905
:102720001848194A40F24D1304F006FF164840F2CB
:102730004D1104F02DFE4FF02003EFF3118283F3CF
:102740001288BFF36F8F0C2303FB0471896C11F0A7
:10275000C00101D08E4210D103FB047301219964A2
:10276000002082F31188BFF36F8F28B9696801EBED
:10277000C404636898470020F8BD4FF0FF30F0E7CD
:10278000618D000034810000248D000070B50D467D
:102790000649411A0446491105484022FFF7B8FF8F
:1027A0002B4601462046BDE870401847AC08002083
:1027B000947C0000002270B5012104461046FFF70A
:1027C00041FB0020FFF720FB0F4801F0BFF80F4B43
:1027D000984215D101F0DEF826690D49304604F023
:1027E00096FE00280BDB0125B5642469084904F135
:1027F000200004F08CFE002801DB6565002070BD20
:102800006FF00400FBE700BF492800000000AD0B9B
:10281000587F000001460C2309484B4370B5C4188B
:10282000D4E91056002248332264184404F02AFFE9
:102830002DB132462B460348BDE87040184770BDA5
:10284000AC080020947C0000012808B506D00328BD
:1028500008D0A8B9104B9B6C5B071BD1BDE80840A2
:10286000FFF7D8BF0D490E4A0E4840F25E2304F030
:1028700063FE40F25E21BDE80840094804F088BDCF
:102880000649074A074840F2622304F055FE40F229
:102890006221F0E708BD00BFAC08002027900000CF
:1028A000248D00003481000008B54FF02003EFF3C1
:1028B000118183F31288BFF36F8F124A136843F0BC
:1028C000020013F0010310600CD04FF08042D2F8E8
:1028D0000C34D2F80C2413F0010303D00A4804F09E
:1028E000D1FE012381F31188BFF36F8F23B1BDE8BF
:1028F00008400020FFF78EBFBDE80840012001F02E
:1029000069B800BF04090020F4080020094BBFF398
:102910005B8F53E8002F22F0020143E800100028EB
:10292000F7D1BFF35B8FD30702D4012001F0A6B823
:10293000704700BF040900201FB500220123CDE924
:102940000223094ACDF800D06B46CDF804D004F03C
:10295000BEFE002805DB4FF480420023684603F0EA
:102960003FFE05B05DF804FBC97600002DE9F84391
:102970004949BFF35B8F0546012251E8003F41E81A
:1029800000200028F9D1BFF35B8FA3B94349444825
:102990004B60CB608A60FEF7ADFF00280BDA41493F
:1029A0004148424A4FF4087304F0C6FD3F484FF4D3
:1029B000087104F0EDFCADB36B1E012B56D8012D50
:1029C00007D14FF08043D3F81C3403F00303012BED
:1029D00028D005F016F9044618B9354B1B78002BA2
:1029E00052D14FF02003EFF3118683F31288BFF327
:1029F0006F8F01242F4FDFF8C480DFF8C4904FF0B1
:102A00008042D2F81834D2F81824D2030CD503F03F
:102A10000303012B01D0012D06D10CB386F31188DD
:102A2000BFF36F8FBDE8F883ACB13046FFF784F990
:102A30004FF08042D2F81835002BE0D139680029D8
:102A4000DDD03B603B680123C2F81835C8F88031FF
:102A5000C9F80030D3E70021212003F091FCE7E71B
:102A60004FF080430222C3F80423DBE712490E48EB
:102A70000E4A40F2322304F05FFDBDE8F8430B48F4
:102A800040F2322104F084BC4FF080430222C3F8AC
:102A900008230646AEE700BF080900209C08002076
:102AA000CC080020858D000034810000248D0000BA
:102AB000710E0020040100402790000000E100E0BA
:102AC0000800004008B5084B0848186005F045F8B4
:102AD00038B10748FFF77CFD0548FFF7F1F8002003
:102AE00008BD6FF01200FBE70C090020F47C000029
:102AF000F52A00000A2838B5074D044604D1286895
:102B000083680D215B68984728688368E1B25B6839
:102B10009847204638BD00BF0C09002070B50569F4
:102B200016460C4661B92249224A2348242304F060
:102B300003FD224804F000FD1E48242104F028FC77
:102B4000636863B91E491B4A1B48252304F0F4FC43
:102B50001C4804F0F1FC1748252104F019FC6B68AF
:102B60005BB100229C4213D123685AB9AA686B60FA
:102B7000944200D1AB600023236076B9002070BD81
:102B80000B46EFE71360AB689C4208BFAA60F2E710
:102B900019681A460029F3D13EB16B682360A86812
:102BA0006C600028EAD1AC60E9E76FF01500E6E759
:102BB000C18D0000948D000034810000CA8D00009A
:102BC000D98D0000EB8D000043092DE9F04703D0BB
:102BD000012B36D0BDE8F0871B4F3B695C68002CA9
:102BE000F8D02568DFF86C80DFF86C90DFF86CA017
:102BF00000F01F000126002D06FA00F638BF002560
:102C0000A3681E4214D0636863B94946452342460F
:102C1000504604F091FC0D4804F08EFC45214046DE
:102C200004F0B6FBD4E901322146324038469847D9
:102C3000002DCFD02B68002B38BF00232C461D461B
:102C4000DEE7034FC9E700BFAC7C0000EB8D00005E
:102C5000C47C0000948D0000028E000034810000CE
:102C60007FB54068057B01F01F04B2F5005F44EAC0
:102C700045144FF0000504D1204601F097FA0020DA
:102C800054E0B2F5804FCDE9025551D1B3F5003F84
:102C90000CBF042305238DF80830836823FA01F163
:102CA00011F0010155D1B2F5A03F52D166094AD0C9
:102CB0004FF6FF73012E08BF194604F01F05E940C7
:102CC000CA070BD42B492C482C4A40F2292304F084
:102CD00033FC2A4840F2292104F05AFB6EB1012E40
:102CE00034D027492448254A40F22E2304F024FCFE
:102CF000224840F22E2104F04BFB4FF0A04305F593
:102D0000E07553F82530DB0723D40DF1070529467C
:102D1000204601F075F91B4B984219D1284601F065
:102D2000CFF9194B984213D06FF00B0004B070BD6F
:102D3000B3F5C02F05D0B3F5003F0CBF022301232C
:102D4000A9E70323A7E74FF0FF31B6E70F4BD6E71C
:102D500003950023194602AA204601F033F80A4BD6
:102D6000984204D10121204601F0B0F987E76FF0C5
:102D70000400DBE7418E0000348100000E8E00006D
:102D8000279000000400AD0B0000AD0B00030050C5
:102D900010B501F085F9044668B901F059F9084BFE
:102DA00098420AD10748214601F024F9224605211C
:102DB0000620FFF747F8002010BD6FF00400FBE786
:102DC0000000AD0BC92B00002DE9F04347683B7BA9
:102DD00001F01F0585B00E4645EA43151446CAB9F1
:102DE00002A9284601F00CF90446284601F000FA31
:102DF000484B984204D06FF0040005B0BDE8F08362
:102E0000844205D19DF8080001F054F9A042F2D1A6
:102E10000020F2E74FF000090DF103013046CDE943
:102E2000029901F0EDF84B46804602AA4946284631
:102E300000F0C8FF374B984202D06FF01500DCE776
:102E4000804503D19DF8030001F034F9A3054ED568
:102E5000314B324A234093423AD00CD8062B14D03F
:102E600004D893B1022BE8D104230EE0B3F5801F00
:102E7000E3D1012309E02A4A93422BD0B3F5A00FF6
:102E80002AD0B3F5800FD8D102238DF8043084F412
:102E90008073C3F30023E0068DF8053054BFC4F3FC
:102EA0004013032321058DF8063017D57B680121D7
:102EB00001FA06F6C3F80865002201A9284601F0C8
:102EC00029F8144B984214BF6FF01500002094E7C6
:102ED0000723DAE70523D8E70323D6E7620541BFD6
:102EE0007B68012101FA06F6C3F80C65E4E7E30606
:102EF0004FF0000354BFC4F3401403241A4601A941
:102F000028468DF8044000F05DFF024B98423FF4E4
:102F10007FAF92E70000AD0B0600F0000600100046
:102F20000200400002480021C2E900010020704771
:102F30000024F40002464068126938B500F1080325
:102F4000043200F10C04194613F9015B002DB4BFE3
:102F500000254FF40045A34222F8025BF4D1002380
:102F60001A4601F007FB034B984214BF6FF00F00A5
:102F7000002038BD0000AD0B0268530910B50446AF
:102F80002CD0012B4FF6FF7318BF002302F01F0255
:102F9000D340DB070BD414491448154A40F22923C7
:102FA00004F0CAFA124840F2292104F0F1F923682A
:102FB00003F01F025B0922600DD0012B11D00D49D7
:102FC0000A480B4A40F22E2304F0B6FA084840F2B1
:102FD0002E2104F0DDF94FF0A04010BD4FF0FF337B
:102FE000D4E70548F9E700BF418E000034810000B6
:102FF0000E8E00002790000000030050F0B54B79C2
:10300000012B26D0032B21D110268B79032B1DD128
:10301000CC790CB1012C19D10A7912B1022A15D13F
:103020000E220B684568B3F5164F2D6865D02DD874
:10303000B3F5165F64D016D8B3F5966F62D00AD890
:10304000B3F5967F61D0B3F5167F61D06FF0850040
:1030500052E00026D9E7B3F5166F5CD0B3F5965F62
:10306000F4D1374B3CE0B3F5E14F57D007D8B3F577
:10307000615F55D0B3F5964FE8D1324B30E047F65B
:103080001227BB42E2D14FF4000329E0B3F5613FC0
:1030900048D013D8B3F5963F47D009D84DF6C0278E
:1030A000BB4244D0B3F5614FD0D14FF46B0317E06E
:1030B000B3F5E13FCAD14FF0EB7311E0B3F5612FE7
:1030C00038D008D8204FBB4237D0B3F5E12FBDD15F
:1030D0004FF0E86304E01D4FBB42B7D14FF080537F
:1030E000C5F82435036903C9344322430433C5F8C2
:1030F0006C2583E803000020F0BD4FF41D03EFE7CB
:10310000134BEDE74FF49E23EAE74FF4A033E7E7D4
:103110004FF41C33E4E74FF41D23E1E70D4BDFE7E9
:103120000D4BDDE74FF06C73DAE70C4BD8E74FF44B
:103130006503D5E74FF07063D2E74FF08063CFE7C8
:1031400000B0130000A04E0090D0030040420F00DA
:103150000050270000C0750000F03A0000903A01CE
:103160000268530910B504462CD0012B4FF6FF73AB
:1031700018BF002302F01F02D340DB070BD4144911
:103180001448154A40F2292304F0D6F9124840F2B7
:10319000292104F0FDF8236803F01F025B09226077
:1031A0000DD0012B11D00D490A480B4A40F22E23B5
:1031B00004F0C2F9084840F22E2104F0E9F84FF07B
:1031C000A04010BD4FF0FF33D4E70548F9E700BF3A
:1031D000418E0000348100000E8E00002790000018
:1031E00000030050F8B5066905460F4604F009FDD6
:1031F00010B92C4B1B7883B94FF02003EFF31184E7
:1032000083F31288BFF36F8F284604F0B8FB28BB06
:1032100084F31188BFF36F8FEEE76424284604F02F
:10322000AEFB70B9012004F0FCFB013CF6D100219B
:10323000212003F0A5F8F0E784F31188BFF36F8F26
:10324000F5E74FF02003EFF3118483F31288BFF307
:103250006F8F284604F093FB0028EDD006F8107F0E
:1032600069680B680122C3F84465C3F84825002249
:10327000C3F82021D3F82001C3F85821D3F85821EE
:103280004A68D20641BF0822C3F800254FF48002E5
:10329000C3F8042301229A6084F31188BFF36F8F6F
:1032A000F8BD00BF710E00202DE9F743D0F804806F
:1032B0000769D8F800400023C4F800353860456835
:1032C000EB680646581C13D001A80193FFF748FF8E
:1032D000019A01239340C0F80835EB68019301A8D7
:1032E000FFF73EFF019B03F5E073032240F8232024
:1032F0002B69591C11D02A7F0193002A01A814BF01
:103300004FF003094FF00009FFF72AFF019B03F577
:10331000E0734FEA890240F823206B695A1C13D0EE
:1033200001A80193FFF71CFF019A01239340C0F805
:1033300008356B69019301A8FFF712FF019B03F5A4
:10334000E073032240F82320AB69581C11D06A7F38
:103350000193002A01A814BF4FF003094FF00009A0
:10336000FFF7FEFE019B03F5E0734FEA890240F888
:103370002320D5E903122B68C3F80C15C3F81425D4
:10338000D5E90512C3F808153169C3F810250431D1
:103390003046FFF733FE0546002846D1D8F8043002
:1033A000990719D507F1120001F020F8224B984235
:1033B0003FD1B87CC30003F1804303F5F83304F137
:1033C0000C0204F59071C3F81015C3F814251B4ABC
:1033D00001238340C2F804350823C4F8003598F867
:1033E00008305BB9C4F81031D4F8103107F111037B
:1033F000C4F834350123C4F838352360D8F80430D4
:103400009A075CBF4FF48072C4F80423DB0644BF04
:103410004FF48003C4F8043310370023C4F8447514
:10342000C4F848350123A360E360284603B0BDE833
:10343000F0836FF00405F8E70000AD0B00F00140E9
:10344000194970B5044622F07F460868C1E9002397
:10345000A6F50013101AB3F5400F4FF000050AD27D
:10346000124B19680A060B0A9219114943F100031D
:10347000C1E90023012503F061FCA30003F18043AF
:1034800003F58833D3F84025B2420BD11DB94FF470
:103490000002C3F84025074B4FF4803000FA04F4D3
:1034A000C3F8444370BD00BFC001002040090020A4
:1034B000A80100200010014010B501238340114AEB
:1034C000BFF35B8FDC4352E8001F01EA040C42E8C3
:1034D00000CEBEF1000FF6D1BFF35B8F4FF4803208
:1034E00002FA00F002F1804202F58052C2F80803AD
:1034F000BFF35F8FBFF36F8F0B4214BF012000201B
:1035000010BD00BF3C0900200123124ABFF35B8FAE
:10351000834052E8001F194342E8001CBCF1000F31
:10352000F7D1BFF35B8F0C4A4FF480338340C2F86E
:1035300004330A4BBFF35B8F1B68BFF35B8F23FA27
:1035400000F0C30742BF064B4FF40032C3F800211E
:10355000704700BF3C0900200010014038090020DE
:1035600000E100E00D4B1B68190A1806BFF35F8FDE
:103570000B4BD3F80435C01841F10001B3F5801F9F
:103580000AD2084BD3E90023994208BF904203D2E4
:1035900010F1807041F10001704700BF4009002028
:1035A00000100140A80100202DE9F04F85B016461B
:1035B0001F460546FFF780FF0190FFF7D3FFB94292
:1035C00008BFB0427FD2B6EB000867EB01090023C9
:1035D0004FF080724B4508BF4245C0F08580444B98
:1035E00003EB0513D3E902239F4208BF964254D050
:1035F0004FEA85094FF4803B09F1804905F15008F5
:103600000BFA05F209F588394FEA88081FFA88F89D
:103610000292384AD9F8400526F07F4308F18048E5
:1036200008F588381C469346D2F804A5A0EB0A009A
:1036300020F07F402AF07F410128C9F8401505D1CC
:103640000393132004F0E7FA2A4A039B02990AF134
:10365000020CA4EB0C0020F07F40B0F5000F88BFF7
:1036600064460020C8F80000D8F80000CBF84413E6
:1036700024F07F40C9F84005DBF80405824506D0F8
:10368000201A023820F07F40B0F5000F19D8E41A54
:1036900024F07F44321947F10003154C290104EB53
:1036A0000510C0E902230E9A0F9B6250436000246C
:1036B000019B13B12846FFF727FF204605B0BDE860
:1036C000F08F2046B0E701230B4ABFF35B8FAB407E
:1036D00052E8001F194342E800100028F8D1BFF358
:1036E0005B8F32463B46D8E76FF01504E0E700BF3A
:1036F000B0010020001001403809002073B5194BBB
:10370000194D00244FF0FF304FF0FF31C5F8084548
:10371000C3E902014FF48033C5F80433134B02268A
:103720004FF400320121C5F804631120C3F8802151
:103730002246FEF787FB1120FEF766FB0C4A0123A9
:1037400013600C4A2B6013600B4B0C4A00930194DE
:1037500000232046FFF728FF3046FFF707F92046F1
:1037600002B070BDB00100200010014000E100E097
:10377000081001403C09002041340000FFFF7F0099
:103780002DE9F743344CD4F804339A0709D5334B69
:103790001A6832B100221A60314A1B68136801337B
:1037A00013604FF02003EFF3118283F31288BFF30D
:1037B0006F8FD4F80433DB0312D5BFF35B8F294B33
:1037C00053E8001F21F0010043E80006002EF7D166
:1037D000BFF35B8F244B002936D11968002933D100
:1037E000002382F31188BFF36F8F53B3FFF7BAFE44
:1037F00006464FF02003EFF3118083F31288BFF3E6
:103800006F8F1A4BD3E90289494508BF46454FF0EF
:1038100000021ED34FF0FF364FF0FF37D3E90015FB
:10382000C3E902671A604FF48033C4F8483380F369
:103830001188BFF36F8F21B1009542464B4600209F
:10384000884703B0BDE8F083002119601B6801239D
:10385000C7E71146EBE700BF00100140041101402B
:10386000400900203809002040110140B00100202B
:10387000144B13B5B0F1FF3F08BF1846441E002C8F
:103880001EDD9C42A8BF1C46FFF76CFE0E4B0F4985
:10389000D3E90023801AB0F5000F28BF00240130BF
:1038A000044408480091844228BF044612194FF08E
:1038B0000000019043F10003FFF776FE02B010BD57
:1038C0000024E1E7FFFF7F00C00100204134000039
:1038D00008B5FFF747FE024B1B68C01A08BD00BFC2
:1038E000C001002008B578B101281CD0144A154940
:1038F00015484FF44F7303F01FFE11484FF44F71FA
:1039000003F046FD00200DE031B14FF08043D3F8C5
:10391000183403F003030B604FF08043D3F818040E
:10392000C0F3004008BD31B14FF08043D3F80C34F0
:1039300003F001030B704FF08043D3F80C04EFE762
:103940007F8E0000279000003481000010B50446EF
:1039500048B90A490A480B4ABD2303F0EDFD09485E
:10396000BD2103F015FD084B1A7922B90122074841
:103970001C609A8010BD0648FCE700BFF08E000076
:1039800034810000B38E0000440900200000AD0B1C
:103990000C00AD0B08B50B4B1B794BB90A490B4812
:1039A0000B4AD62303F0C8FD0948D62103F0F0FCEA
:1039B0000020FEF739FA18B9BDE80840FEF724BA2E
:1039C00008BD00BF44090020FE8E000034810000C5
:1039D000B38E0000224B1B7913B504465BB9214915
:1039E0002148224A4FF4897303F0A6FD1F484FF483
:1039F000897103F0CDFC74B1012C27D01B4A1C49FE
:103A000019484FF4A27303F097FD18484FF4A271C0
:103A100003F0BEFC16E001A92046FFF763FF4FF05C
:103A2000804388B1019A012A0ED1C3F81825114BA1
:103A300000221A601B684FF080430222C3F804235F
:103A400001229A6002B010BD0022EEE70A4B00226C
:103A50001A601B684FF08043C3F804431C60F1E711
:103A600044090020FE8E000034810000B38E000067
:103A700027900000040100400001004037B52F4DA1
:103A80002A7904465AB92E492E482F4A40F24B1340
:103A900003F052FD2C4840F24B1103F079FC7CB14D
:103AA000012C28D029492748274A40F2671303F000
:103AB00043FD254840F2671103F06AFC03B030BDB6
:103AC0004FF080430222C3F80823C3F8044103F5F2
:103AD000827301221B681E4B42F210741A6000218F
:103AE0000846FFF7FFFE0028E8D0012003F099FF09
:103AF000013CF4D1E2E74FF080430022C3F80843D1
:103B0000C3F8002103F580731B68124B1C608DF80D
:103B1000074042F210740DF107010120FFF7E2FEA9
:103B200010B900236B71C9E79DF807000128F8D18F
:103B300003F077FF013CEED1F3E700BF440900201A
:103B4000FE8E000034810000B38E0000279000003C
:103B50000C00004004000040164B07B51A686AB11B
:103B600000221A601B684FF080430122C3F808232B
:103B7000114B587910B95A711B6898470F4B1A6846
:103B80006AB10020186001A91B68FFF7ABFE019A1B
:103B90004FF0804332B90122C3F818259A6003B070
:103BA0005DF804FB0222C3F80823034B01201B68C5
:103BB0009847F4E700010040440900200401004058
:103BC00070B501250368B3FA83F2202AC2F11F04FD
:103BD00014D0BFF35B8F05FA04F223EA020250E827
:103BE000006F9E4204D140E8002CBCF1000FF6D1DA
:103BF000BFF35B8FE6D102480C7070BD0148FCE753
:103C00000000AD0B0200AD0B0368CB40DB0710B525
:103C100015D4012303FA01F10368BFF35B8F41EA76
:103C2000030250E8004F9C4204D140E8002CBCF154
:103C3000000FF6D1BFF35B8FEED1024810BD0248F2
:103C4000FCE700BF0000AD0B0400AD0B054B0830D6
:103C500033F8100000F02200A0F12203584258412E
:103C6000704700BF5000002070B500F108030C4CF5
:103C700034F81330DA0505460E4607D5C3F343235F
:103C800004EBC30254F8333052689847A3682BB151
:103C9000E26831462846BDE87040184770BD00BF55
:103CA00050000020194B083010B533F81020D10512
:103CB0001DD5C2F3432122F4F85223F8102003F15A
:103CC0001004002034F8022B12F4807F03D0C2F3DA
:103CD000432291420BD001303028F3D1002243F827
:103CE00031200B48FFF790FF0A4B984200D110BDDE
:103CF00009490A480A4A4FF4997303F01DFCBDE8CC
:103D0000104007484FF4997103F042BB5000002067
:103D1000C40000200000AD0B808F00003481000043
:103D20001C8F000038B50A4C00F1080534F8153036
:103D30009A0606D55B0B074A03F5A273002142F8E9
:103D40002310FFF7AFFF002324F8153038BD00BF64
:103D5000500000200060004010B50446006803F0E9
:103D600062FE58B912491348134A40F2292303F05E
:103D7000E3FB114840F2292103F00AFB236803F01A
:103D80001F025B0922600DD0012B0ED00B490948A0
:103D9000094A40F22E2303F0CFFB074840F22E21C0
:103DA00003F0F6FA4FF0A04010BD0548FCE700BF55
:103DB000418E0000348100000E8E0000279000002C
:103DC00000030050F0B5044685B017461D46F1B11A
:103DD000FFF73CFF10B14A4805B0F0BD0B46CDE9F6
:103DE00000008DF80E008DF80F000DF10F020DF19F
:103DF0000E01204603F02CFE424A04F1080132F87D
:103E0000113023F0020343F0010322F8113097B17F
:103E10003C4B3E787A6804F1080033F810108F07A5
:103E20000CD5002AD7D133F8102022F01C0242EA28
:103E3000860223F81020CDBB3348CDE721F02001C6
:103E4000C904C90C23F81010002AECD0032EC2D8E4
:103E500017782EB92D4A07F5A27142F82160E2E7E2
:103E6000BA0002F1804202F5C04241EA4731D2F87D
:103E700010C52CF0030CC2F810C5D2F810C52CF4F4
:103E80004F3C2CF4407CC2F810C5D2F810E54FEA44
:103E9000042C0CF47C5C4EEA064E4CEA0E0C41F00D
:103EA000200123F81010C2F810C5BCE7D5E900675F
:103EB0002046FFF7F7FE002EBED0124D2B689E4223
:103EC00004D16B689F4201D100220AE010480DF135
:103ED0000F01FFF775FE0C4B98427FF47DAF9DF804
:103EE0000F2045F8326005EBC20308345F6035F8F7
:103EF000143043EA422343F4807325F814309BE7DF
:103F00000400AD0B500000200000AD0B006000402D
:103F1000C4000020F0B5044685B0154609B300F191
:103F20000807314E36F81730980701D49A0658D44E
:103F300013F01C0F02D04B78012B52D001238DF8C7
:103F40000F300023CDE900134A1C8B1C20460DF1D5
:103F50000F0103F07DFD36F8173043F0030326F818
:103F6000173015B9214805B0F0BD1F4E04F1080700
:103F700036F81700830734D595F800C061468900EC
:103F800020F0200001F18041C00401F5C041C00CC7
:103F900026F817000023C1F810356A78002AE1D00E
:103FA000D1F81035AD7823F4991323F4F853C1F800
:103FB0001035D1F810E5230203F47C53120443EAD0
:103FC0000E0302F440322D05134305F4801540EA38
:103FD0004C302B4340F0200026F81700C1F8103574
:103FE000C0E70348BFE700BF500000200000AD0B52
:103FF0000400AD0B014BC3E90201704750000020E3
:1040000038B504460D4659B90B490C480C4A40F2E4
:10401000352303F091FA0A4840F2352103F0B8F94C
:104020000834084B33F814309A0643BF5B0B2B70EF
:104030000548064838BD00BF948F00003481000059
:104040001C8F0000500000200000AD0B0400AD0BE1
:1040500038B50E4C94F87850B5B96022294604F171
:10406000100003F0CAFA0620FDF7CEFE084B0948FF
:104070001D601B68084B4FF00042C3F80423012366
:1040800084F87830636738BD0448FCE750000020AE
:104090007C6100400000AD0B006000400500AD0BEE
:1040A000034B93F87800003818BF0120704700BF19
:1040B0005000002001460148FFF7A6BDC0000020C7
:1040C00001460148FFF77CBDC0000020F7B5314D27
:1040D00000F10807044635F8173013F01C0F0E46A0
:1040E0000BD12D492D482E4A40F2DF3303F024FA3C
:1040F0002B4840F2DF3103F04BF935F81700830607
:104100001FD510F002031CD1410B084603F09CFCA4
:1041100000F1804000F5C040036003688B0003F1AC
:10412000804303F5C043D3F8102542F00102C3F8E1
:10413000102526B11B4A01238B40C2F8043303B07B
:10414000F0BD5EB918491548154A40F2EE3303F048
:10415000F3F9134840F2EE3103F01AF935F817304D
:10416000C3F38203042B10D0052B10D001A80194B7
:10417000FFF7F2FD019BD0F81015D94001F00101C5
:104180000231204603F0AFFCD9E70321F9E7022111
:10419000F7E700BF500000209E8F00003481000030
:1041A0001C8F000000600040B38F00000E4B00F138
:1041B000080233F81230990613D59A0711D45B0B15
:1041C00001229A409B00094903F1804303F5C04353
:1041D000C1F80823D3F8102522F00302C3F81025F4
:1041E0007047002103F07FBC5000002000600040B9
:1041F0000E4B00F1080213B513F81230DB0704462A
:1042000011D5FFF7D3FF2046FFF78CFD01A80194DD
:10421000FFF7A2FD019B03F5E073022240F8232083
:10422000034802B010BD0348FBE700BF5000002068
:104230000000AD0B0400AD0B2DE9F04F654B664857
:104240006649002589B001222C461E6836B1D0F897
:10425000046316421EBF1C601E68154304338B4264
:104260004FEA4202F1D15E4F3B687BB34FF0A0436F
:104270005C4ED3F820250692C3F82025D6F82035C9
:104280000793C6F8203501960DF118094FF0000884
:104290004FF0010BD9F80030F3B908F12008B8F15C
:1042A000400F09F10409F5D13B603B6801994FF0DB
:1042B000A043D3F820250692C3F82025019BD3F80C
:1042C00020350793C1F820351343DDD10124002D9B
:1042D00068D109B0BDE8F08F93FAA3F3B3FA83F382
:1042E00008EB030606F108023F4B059633F812204F
:1042F000C2F38203F40802939A4606AB06F0070065
:104300000BFA00FC185D20EA0C001855910805A86E
:104310000391FFF721FD059C039904F5E0744B0719
:1043200050F82440C4F3014423D551463046FFF7EA
:104330009BFC05A80596FFF70FFD059A02F5E072B4
:10434000E4B250F82220C2F30142944207D1002186
:10435000304603F0C8FB2146304603F0C4FB05A8F5
:104360000596FFF7F9FC059B0BFA03F3C0F820351F
:1043700090E7022C0CBF03210221304603F0B3FB6F
:10438000029B032B04D0022C07D1BAF1010FE6D116
:1043900051463046FFF768FCE1E7032CDFD1BAF164
:1043A000020FF4E795FAA5F3B3FA83F304FA03F2E4
:1043B0009B0003F1804303F5C04325EA0205D3F8CF
:1043C0001005D3F81015C0F30520C1F30141FFF724
:1043D0004BFC7CE700610040006000402061004031
:1043E0007C6100400003005050000020014601485D
:1043F000FFF7E6BBCC0000202DE9F04104460E4655
:1044000015465AB932493348334A40F2A72303F0DC
:1044100093F8314840F2A72102F0BAFF2F685FB944
:104420002E492C482C4A4FF42D7303F085F82A4866
:104430004FF42D7102F0ACFF04EB4618C8F820755C
:10444000AF88002F38D12649234A224840F2BD23A5
:1044500003F072F840F2BD211F4802F099FFC8F83E
:104460002475AF68B7F1807F0BD31E4919481A4AEB
:1044700040F2C72303F060F8174840F2C72102F06A
:1044800087FFED684FEA461804EB4616B5F1807FCA
:10449000C6F828750BD314490E480F4A4FF43473ED
:1044A00003F04AF80C484FF4347102F071FF4444B1
:1044B000C4F82C55BDE8F0813B04D0D50B49064A21
:1044C000044840F2BE2303F037F840F2BE21C3E7B0
:1044D000F08F000034810000BE8F000005900000C6
:1044E0001D90000047900000689000002990000097
:1044F0000268530910B504462CD0012B4FF6FF7308
:1045000018BF002302F01F02D340DB070BD414496D
:104510001448154A40F2292303F00EF8124840F2DD
:10452000292102F035FF236803F01F025B09226096
:104530000DD0012B11D00D490A480B4A40F22E2311
:1045400002F0FAFF084840F22E2102F021FF4FF05E
:10455000A04010BD4FF0FF33D4E70548F9E700BF96
:10456000418E0000348100000E8E00002790000074
:10457000000300502DE9F04F064687B0914698465B
:104580000C4649B959495A485A4A8C2302F0D4FF7B
:1045900058488C2102F0FCFE3779574D0C217943A5
:1045A0006B181A7A002A40F09F80227B45F8019010
:1045B000C3F804809A72002A4DD0637B002B4AD046
:1045C000D6F80080B4F808900123C8F80035B4F993
:1045D000083094F805B094F806A0002B0BDA474990
:1045E0004348474A4FF4277302F0A6FF44484FF46C
:1045F000277102F0CDFEC8F80CB53068C8F804A5E4
:10460000C8F808956389C0F810350023C0F8003257
:10461000C0F80033C0F81C31D0F81C21C0F81031AC
:10462000D0F81021C0F81431D0F81421C0F80431AA
:10463000D0F804310C237B43EB581BB140F3073017
:10464000FDF7E2FB0C2303FB07552E4801232B72D9
:1046500007B0BDE8F08F04F1FF390DF1080804F14F
:10466000030A19F8012FFF2A39D0217B22F0800B91
:10467000C8F800B0B1B91306CDF804B001A826D42B
:10468000FFF736FF019901228A40C0F80C2501A8E6
:10469000CDF804B0FFF72CFF019B03F5E073032274
:1046A00040F82320D14508F10408DAD1637B002BC0
:1046B00086D13368029AC3F86025039AC3F864254B
:1046C000049AC3F86825059AC3F86C2578E7FFF7C4
:1046D0000FFF019901228A40C0F80825D7E74FF063
:1046E000FF33C8F80030DDE70748B1E7C6900000A7
:1046F000348100008B9000004C090020CF90000016
:10470000BE8F00000000AD0B0500AD0B2DE9F041A0
:10471000984603791446314A0E4603EB430102EBF7
:1047200081070C2101FB032305461B7A5BB92C4949
:104730002C482D4A4FF4967302F0FEFE2A484FF49F
:10474000967102F025FE5CB928492648264A40F2B7
:104750002D1302F0F1FE244840F22D1102F018FE54
:10476000336803F06043B3F1005F0BD020491D486C
:104770001D4A4FF4977302F0DFFE1B484FF4977108
:1047800002F006FE286832460021FFF735FE286851
:1047900032460121FFF730FE286804F0010303EBE5
:1047A000540418F0010FC0F8144514D118F0020297
:1047B00003D0002B14BF08220422002BC0F80022D3
:1047C00039465FFA88F218BF0C23BDE8F04108BFF4
:1047D000082303F097B91022EFE700BF4C0900202F
:1047E000F0900000348100008B9000001C910000CC
:1047F0002F91000070B5124E04790C2202FB046266
:104800000546127A5AB90F490F48104A4FF4D5732A
:1048100002F092FE0D484FF4D57102F0B9FD0C2361
:104820002A6803FB0464237AD2F80421DBB21AB9A4
:10483000981E18BF012070BD01202072FBE700BF49
:104840004C090020F0900000348100008B900000A3
:1048500038B5144A03790D460C2101FB03230446A5
:104860001B7A5BB910491148114A40F2851302F0D6
:1048700063FE0F4840F2851102F08AFD2368002292
:10488000C3F8002201225A602046FFF7B3FF38B96F
:104890002046FFF7AFFF18B9002DF9D1284638BDE3
:1048A0000125FBE74C0900205891000034810000ED
:1048B0008B900000034B1868A0F108035842584140
:1048C000704700BF30010010064B1B68082B06D153
:1048D000054B1B68052B02D8044AD05C70470020AA
:1048E000704700BF3001001034010010A391000098
:1048F000024AD2F80034002BFBD0704700E00140A0
:1049000010B5FFF7D7FF40B14FF080430022C3F846
:104910000C21C3F81021C3F83825FFF7CBFF00287E
:1049200046D04FF080525B4BD2F80414C3F82015E8
:10493000D2F80814C3F82415D2F80C14C3F82815BB
:10494000D2F81014C3F82C15D2F81414C3F830158B
:10495000D2F81814C3F83415D2F81C14C3F8401553
:10496000D2F82014C3F84415D2F82414C3F848151B
:10497000D2F82814C3F84C15D2F82C14C3F85015EB
:10498000D2F83014C3F85415D2F83414C3F86015B3
:10499000D2F83814C3F86415D2F83C14C3F868157B
:1049A000D2F84014C3F86C15D2F84424C3F870252B
:1049B000FFF78AFF10B1384B384A1A60FFF784FFBF
:1049C00018B1374BFB22C3F81825FFF77DFF48B11C
:1049D0003449354B0A681B6822F00F0203F00F03BD
:1049E00013430B60FFF770FF18B1304B4FF40072A8
:1049F0001A60FFF75FFF48B14FF08043D3F80024FF
:104A0000D20744BF6FF00102C3F80024284B1B6893
:104A1000082B0ED1274B1B68052B02D8264AD35CE6
:104A20003BB14FF01023D3F808224FF08043C3F876
:104A300058254FF01023D3F80022002A03DBD3F8C7
:104A40000432002B22DA1D490123C1F80435FFF797
:104A50004FFF4FF010201224C0F80042FFF748FF2C
:104A6000C0F80442FFF744FF0023C1F80435FFF704
:104A70003FFFBFF34F8F1249124BCA6802F4E06246
:104A80001343CB60BFF34F8F00BFFDE70E4B0F4AC0
:104A90001A6010BD00C000408C56004048810300E1
:104AA00000F00040E40E0040580200104096024022
:104AB00030010010340100109D91000000E0014021
:104AC00000ED00E00400FA05D00000200090D003C3
:104AD00010B5144C144A1549032323616361144B28
:104AE000A261E3614FF4806323620023A3626362E7
:104AF000E36222660F4A6266E01D1022A266236707
:104B0000E366636702F048FDBFF35F8F0A49204602
:104B100002F042FDBFF35F8F2023A371BFF35F8FCD
:104B200010BD00BF58090020A9910000B2910000FB
:104B3000710A0020610A0020B69100000E4B70B58A
:104B400053F82040013053F82060A64200D870BDD1
:104B5000D4E900352846984765B1EB6830B10028A4
:104B6000B8BF4042FF28A8BFFF2018705A7842F013
:104B700001025A700834E8E72C80000070B5054641
:104B800010B90024204670BD0378002BF9D00F4ADD
:104B90000F4C1646944208D10D4CB442F1D0204639
:104BA00002F0DBFF50B91834F7E7204602F0D5FFDA
:104BB00010B12368AB42E5D01834EBE721682846F2
:104BC00002F004FD0028EED1DCE700BF247D0000E8
:104BD000947C0000F8B504460E464FF02003EFF336
:104BE000118783F31288BFF36F8F01F001FC314608
:104BF0000546204602F005FF042C0CD10A490B4A59
:104C00000B488F2302F098FC0A4802F095FC0748F5
:104C10008F2102F0BDFB87F31188BFF36F8F284609
:104C2000BDE8F840FDF79CBBDF910000BD9100009E
:104C300034810000FC910000114CA26892F90E2012
:104C4000002A08B509DA0F490F48104A272302F055
:104C500073FC0E48272102F09BFB4FF02002EFF37C
:104C6000118382F31288BFF36F8F01F0CFFFA06131
:104C7000FCF79EFF0028F0D1FDF750F8EDE700BFEC
:104C8000000A00205292000034810000319200009E
:104C900030B5002387B00122CDE904230F22CDE9EE
:104CA00002320D4C0D4A01930D49182304EBC01438
:104CB00003FB00234FF4B075009305FB0011094B73
:104CC0004FF4A072204601F015FD637B23F004032E
:104CD000637307B030BD00BFC8010020000A002088
:104CE00060140020394C000008B50A4B0122022054
:104CF0001A70FFF723FF02F057F90320FFF71EFF9A
:104D000001F05CFDFBF7FEFD034A137B23F001037A
:104D1000137308BD710E0020480200200248034AA8
:104D20000021121A02F069BCA801002030100020F6
:104D300080B5DFF8D880A6B088F308882D4D2E4EB8
:104D40006B69DFF8CC9043F4007300246B61E023BF
:104D500085F82230EC772C766C76AC7685F820409E
:104D60006B6A43F4E0236B6285F82340FDF7A2FAF7
:104D7000FCF7CEFF4FF0FF33AB62EB62FDF7CAFBEF
:104D8000FDF700FB40F20113ADF8243006ABB36031
:104D9000CDE91F4402F0E0FE2046FFF7CFFE0120E0
:104DA000164DFFF7CBFE01F08DF9154B059301234E
:104DB00014490094CDE903434FF480624B46CDE99A
:104DC00001442846F56101F095FC6A7B22F004025B
:104DD0006A730746284600F0C1FD2046FFF758FFDA
:104DE000094BF3604A46394628463475C6F80480B4
:104DF000FDF7C8F800ED00E0000A0020480200209E
:104E00007A92000040100020C8010020E01D002020
:104E1000E94C00002DE9F041164D174C174EA846FD
:104E2000AC420CD9164917483C23324602F084FBA9
:104E3000154802F081FB3C21304602F0A9FA4445B6
:104E400002D30020BDE8F081D4E9042141EA020345
:104E500013F003030BD1E068A361834201D1203436
:104E6000DEE7A7690F600133A1611144F5E76FF038
:104E70001500E7E754010020540100207F92000054
:104E8000A492000034810000C19200002DE9F74394
:104E900004460E469046994600F108054FF020035F
:104EA000EFF3118783F31288BFF36F8F284601F069
:104EB00015FD68B9244A25492548812302F03CFBA9
:104EC0002448294602F038FB1F48812102F060FA8D
:104ED000284601F021FDA369EBB133601B68A36193
:104EE000E3690133E3610024284601F005FD68B958
:104EF000154A19491648AC2302F01EFB17482946EB
:104F000002F01AFB1048AC2102F042FA87F3118834
:104F1000BFF36F8F13E058EA090203D133606FF0DB
:104F20000B04E1E72246CDE900893946284600F026
:104F3000C7FE044618B90A4B9B685B69336020467C
:104F400003B0BDE8F08300BF55890000A7890000C9
:104F500034810000BC8900007B8900009289000038
:104F6000000A00202DE9F04104460E4600F1080534
:104F70004FF02003EFF3118783F31288BFF36F8F95
:104F8000284601F0ABFC68B9224A23492348812313
:104F900002F0D2FA2248294602F0CEFA1D488121B9
:104FA00002F0F6F9284601F0B7FCD4F81880B8F101
:104FB000000F0FD1204601F035F858B13268426138
:104FC000C0F8788000F0CAFC39462846BDE8F041B8
:104FD00000F070BA3368A2691A603368A361E369AC
:104FE000013BE361284601F087FC68B9094A0D4995
:104FF0000A48AC2302F0A0FA0B48294602F09CFABA
:105000000448AC2102F0C4F987F31188BFF36F8F15
:10501000BDE8F08155890000A789000034810000B7
:10502000BC8900007B890000928900002DE9F341D2
:10503000044616461F46EFF3058363B17049714A73
:105040007148652302F078FA704802F075FA6D48ED
:10505000652102F09DF94FF02003EFF3118883F3EF
:105060001288BFF36F8F6A4801F038FC68B9694A4B
:1050700069496548812302F05FFA6549674802F093
:105080005BFA6448812102F083F9614801F044FC35
:10509000E368634AFBB1A068916888423DD056EA54
:1050A00007033CD15A4801F027FC68B9594A5D49C9
:1050B0005548AC2302F040FA55495B4802F03CFAEF
:1050C0005448AC2102F064F988F31188BFF36F8F64
:1050D0006FF00F001EE0916891F90E104C482161AD
:1050E0000133E3609368A36001F006FC68B9494AA4
:1050F0004C494548AC2302F01FFA45494A4802F0A2
:105100001BFA4448AC2102F043F988F31188BFF33D
:105110006F8F002002B0BDE8F0812169DEE791F9D0
:105120000E1090F90E309942A8BF19466FF07E021A
:105130009142B8BF11468B4244DD00F0F1FD0546B7
:10514000CDE9006732482246414600F0B9FD00280B
:10515000E0D04FF02003EFF3118683F31288BFF302
:105160006F8F2B4801F0BAFB68B92A4A2A492648B2
:10517000812302F0E1F92649284802F0DDF92548AB
:10518000812102F005F9224801F0C6FB236821695C
:105190009C420AD04BB193F90E309942A8BF1946F0
:1051A0006FF07E039942B8BF1946A06890F90E309F
:1051B000994209D16DB11648314600F07BF96FF084
:1051C0000A00A7E70025BBE700F0AAFD0028F2D1FE
:1051D000F0E70F4801F090FB68B90E4A11490A4800
:1051E000AC2302F0A9F90A490F4802F0A5F90948D1
:1051F000AC2102F0CDF886F31188BFF36F8FDEE7A4
:1052000002930000E092000034810000149300003B
:10521000280A002055890000A7890000BC890000E9
:10522000000A00207B8900009289000038B50446FE
:10523000EFF3058363B15249524A5348C72302F042
:105240007BF9524802F078F94E48C72102F0A0F8E5
:10525000A368002B00F08D804D4DAA68934240F06A
:105260008B80E3684BB94B494748464ADF2302F03D
:1052700063F94448DF2102F08BF8EFF3058363B153
:105280003F49454A4048FD2302F056F9434802F0A1
:1052900053F94148FD2102F07BF8AB68DB7B012B21
:1052A0000CD13F493C4A3848FE2302F045F93B48BF
:1052B00002F042F93848FE2102F06AF8AA68D37B6E
:1052C000013BD373E368012B05D9013BE36000F098
:1052D0002DFE002038BD4FF02003EFF3118583F33E
:1052E0001288BFF36F8F2F4801F0F8FA68B92E4A81
:1052F0002E492548812302F01FF92A492C4802F043
:105300001BF92948812102F043F8264801F004FBEB
:10531000A068216990F90E30994201D000F000FD9B
:10532000204600F07FFEA06058B190F90E20226167
:105330000022826700F012FB1A48294600F0BAF8F2
:10534000C5E7E060174801F0D7FA68B9164A19496D
:105350000D48AC2302F0F0F81249174802F0ECF8BF
:105360001148AC2102F014F885F31188BFF36F8F58
:10537000ADE76FF01500ADE74FF0FF30AAE700BFD3
:1053800002930000E09200003481000014930000BA
:10539000000A002039930000509300007B93000026
:1053A0007E930000280A002055890000A78900008C
:1053B000BC8900007B8900009289000010B5084C70
:1053C00023685BB1FEF784FA03462068054A03446C
:1053D000BDE810401361002101F060BC10BD00BFAA
:1053E000380A0020000A0020F8B504460D464FF0A8
:1053F0002003EFF3118683F31288BFF36F8F2348E6
:1054000001F06CFA68B9224A22492348812302F04C
:1054100093F81E49214802F08FF81D48812101F0C0
:10542000B7FF1A4801F078FA1D4B00224FF40047ED
:1054300040F2E73000211A61E7FB040100234FF43A
:105440007A72FAF75DFE002C164B1BDC1860164BC7
:105450001D60FFF7B3FF0D4801F04EFA68B90C4A22
:1054600012490D48AC2302F067F80849104802F0D1
:1054700063F80748AC2101F08BFF86F31188BFF376
:105480006F8FF8BD0228B8BF0220DFE7300A002086
:1054900055890000A789000034810000BC89000004
:1054A000000A0020380A0020340A00207B8900000E
:1054B0009289000038B504460D46E9B9EFF305833B
:1054C000D3B9194BDA699B689A4215D001F014FAE6
:1054D00068B9164A16491748C32302F02DF8164832
:1054E000214602F029F81148C32101F051FFBDE81F
:1054F00038400020FCF7F6BC204601F0FDF968B901
:105500000A4A0B490B48AC2302F016F80A48214618
:1055100002F012F80548AC2101F03AFF85F311883A
:10552000BFF36F8F38BD00BF000A0020558900000F
:105530007B890000348100009289000038B54FF06B
:105540002003EFF3118583F31288BFF36F8F29488F
:1055500001F0C4F968B9284A28492948812301F093
:10556000EBFF2449274801F0E7FF2348812101F0A0
:105570000FFF204801F0D0F9EFF3058363B1224912
:10558000224A1F48FD2301F0D7FF214801F0D4FF34
:105590001E48FD2101F0FCFE1E4CA268D27B012AB0
:1055A0000CD11D49194A1648FE2301F0C5FF1848C1
:1055B00001F0C2FF1548FE2101F0EAFEA268D37B8C
:1055C000013BD3730B4801F097F968B90A4A1349B4
:1055D0000B48AC2301F0B0FF0649114801F0ACFFC5
:1055E0000548AC2101F0D4FE85F31188BFF36F8F1D
:1055F00038BD00BF300A002055890000A78900008F
:1056000034810000BC890000029300005093000028
:105610007B930000000A00207E9300007B8900003D
:10562000928900000C4B994210B50C460BD10B49E6
:105630000B480C4A40F2E73301F07EFF094840F284
:10564000E73101F0A5FED4E9003213605A6000236F
:10565000C4E9003310BD00BFC8010020D193000091
:1056600034810000AF930000836810B504465BB935
:105670000B490C480C4A40F2832301F05DFF0A48B5
:1056800040F2832101F084FEA0682146FFF7CAFFA3
:10569000637B23F0020363730023A36010BD00BF8C
:1056A000F293000034810000AF93000038B5024649
:1056B0001448154D02F09BFA044600B9EC68CAB9CB
:1056C000AB6863B91149124A1248892301F034FFCB
:1056D000114801F031FF0E48892101F059FEAB68F5
:1056E0005A7BD20606D1A26922B9DA897F2A01D96A
:1056F000EB6138BDAB68A34201D0FFF75FFEEC6100
:10570000F7E700BF200A0020000A002009940000EB
:10571000AF930000348100007B93000070B590F9D6
:105720000D20437B002A044606DA03F07F0343730F
:1057300001461F48FFF776FF637B63F07F036373C7
:105740001C4B9C4209D11C491C481D4ABA2301F03C
:10575000F3FE1B48BA2101F01BFE1A4A1146556A96
:1057600051F8203F8B4208BF0023002B38BF002395
:10577000CBB194F90E6093F90E0086420FD0801BD6
:1057800000280CDD5968C4E900310C605C60906849
:10579000031B5842BDE870405841FFF787BFAB423A
:1057A00001D01B68E4E7C4E900152C605462EEE701
:1057B000200A0020C8010020D1930000348100009D
:1057C000AF930000000A002070B504464FF020039C
:1057D000EFF3118583F31288BFF36F8F2A4801F02E
:1057E0007DF868B9294A2A492A48812301F0A4FE94
:1057F0002549294801F0A0FE2448812101F0C8FD77
:10580000214801F089F8254B254A9868116888429B
:10581000194618D1FFF7D2FD1B4801F06DF868B9A1
:105820001A4A20491B48AC2301F086FE16491E483F
:1058300001F082FE1548AC2101F0AAFD85F3118824
:10584000BFF36F8F70BD00261660184A1268BAB198
:10585000C2897F2A14D8427BD20611D1144A90F90A
:105860000E60126896420BDB124A904208D01A6909
:10587000A24202DCFFF752FFCCE7121B1A61CBE712
:1058800000230B61C8E700BF300A002055890000E3
:10589000A789000034810000BC890000000A0020B4
:1058A0002C0A00207B89000092890000380A002021
:1058B000340A0020C801002070B590F90D20437B08
:1058C000002A04463EDBDA063CD18569002D39D139
:1058D00063F07F0343731C4B984209D11B491C485A
:1058E0001C4ABA2301F028FE1A48BA2101F050FDE3
:1058F00019490B4653F8200F984218BF0546002D52
:105900001A462B464D6A38BF0023B3B194F90E6096
:1059100093F90E0086420CD0801B002809DD5A68DE
:10592000C4E9003214605C60BDE870400020FFF7FD
:10593000BDBEAB4201D01B68E7E7C4E900252C607F
:105940004C62F1E770BD00BFC8010020D193000098
:1059500034810000AF930000000A002038B50446EF
:105960004FF02003EFF3118583F31288BFF36F8F9D
:10597000174800F0B3FF68B9164A17491748812342
:1059800001F0DAFD1249164801F0D6FD11488121D7
:1059900001F0FEFC0E4800F0BFFF2046FFF78CFF31
:1059A0000B4800F0A9FF68B90A4A0E490B48AC231E
:1059B00001F0C2FD06490C4801F0BEFD0548AC21CE
:1059C00001F0E6FC85F31188BFF36F8F38BD00BF8F
:1059D000300A002055890000A789000034810000AA
:1059E000BC8900007B8900009289000038B504461C
:1059F0004FF02003EFF3118583F31288BFF36F8F0D
:105A00001D4800F06BFF68B91C4A1D491D488123E1
:105A100001F092FD18491C4801F08EFD17488121C4
:105A200001F0B6FC144800F077FF637B5A0716D4E8
:105A3000114800F061FF68B9104A14491148AC23BD
:105A400001F07AFD0C49124801F076FD0B48AC21BB
:105A500001F09EFC85F31188BFF36F8F38BD23F0F2
:105A6000040320466373FFF727FF29460248BDE879
:105A70003840FFF71FBD00BF300A002055890000E5
:105A8000A789000034810000BC8900007B890000E8
:105A90009289000070B504464FF02003EFF31186A1
:105AA00083F31288BFF36F8F204800F017FF68B9A7
:105AB0001F4A20492048812301F03EFD1B491F4811
:105AC00001F03AFD1A48812101F062FC174800F00C
:105AD00023FF14F80B3C13F0280F10D154F8103C9E
